{"abi":[{"type":"function","name":"doNotDisturb","inputs":[{"name":"_time","type":"uint256","internalType":"uint256"}],"outputs":[{"name":"","type":"string","internalType":"string"}],"stateMutability":"pure"},{"type":"function","name":"fizzBuzz","inputs":[{"name":"_number","type":"uint256","internalType":"uint256"}],"outputs":[{"name":"","type":"string","internalType":"string"}],"stateMutability":"pure"},{"type":"error","name":"AfterHours","inputs":[{"name":"time","type":"uint256","internalType":"uint256"}]}],"bytecode":{"object":"0x6080604052348015600e575f5ffd5b506105e48061001c5f395ff3fe608060405234801561000f575f5ffd5b5060043610610034575f3560e01c8063440c93e214610038578063e655b7bb14610068575b5f5ffd5b610052600480360381019061004d91906103d9565b610098565b60405161005f9190610474565b60405180910390f35b610082600480360381019061007d91906103d9565b6101c8565b60405161008f9190610474565b60405180910390f35b60605f600f836100a891906104c1565b036100ea576040518060400160405280600881526020017f46697a7a42757a7a00000000000000000000000000000000000000000000000081525090506101c3565b5f6003836100f891906104c1565b0361013a576040518060400160405280600481526020017f46697a7a0000000000000000000000000000000000000000000000000000000081525090506101c3565b5f60058361014891906104c1565b0361018a576040518060400160405280600481526020017f42757a7a0000000000000000000000000000000000000000000000000000000081525090506101c3565b6040518060400160405280600581526020017f53706c617400000000000000000000000000000000000000000000000000000081525090505b919050565b606061096082106101e2575f6101e1576101e06104f1565b5b5b6108988211806101f3575061032082105b1561023557816040517fa4bf701e00000000000000000000000000000000000000000000000000000000815260040161022c919061052d565b60405180910390fd5b6104b0821015801561024957506104eb8211155b15610289576040517f08c379a000000000000000000000000000000000000000000000000000000000815260040161028090610590565b60405180910390fd5b610320821015801561029d57506104af8211155b156102df576040518060400160405280600881526020017f4d6f726e696e6721000000000000000000000000000000000000000000000000815250905061039d565b61051482101580156102f357506107078211155b15610335576040518060400160405280600a81526020017f41667465726e6f6f6e2100000000000000000000000000000000000000000000815250905061039d565b610708821015801561034957506108988211155b1561038b576040518060400160405280600881526020017f4576656e696e6721000000000000000000000000000000000000000000000000815250905061039d565b60405180602001604052805f81525090505b919050565b5f5ffd5b5f819050919050565b6103b8816103a6565b81146103c2575f5ffd5b50565b5f813590506103d3816103af565b92915050565b5f602082840312156103ee576103ed6103a2565b5b5f6103fb848285016103c5565b91505092915050565b5f81519050919050565b5f82825260208201905092915050565b8281835e5f83830152505050565b5f601f19601f8301169050919050565b5f61044682610404565b610450818561040e565b935061046081856020860161041e565b6104698161042c565b840191505092915050565b5f6020820190508181035f83015261048c818461043c565b905092915050565b7f4e487b71000000000000000000000000000000000000000000000000000000005f52601260045260245ffd5b5f6104cb826103a6565b91506104d6836103a6565b9250826104e6576104e5610494565b5b828206905092915050565b7f4e487b71000000000000000000000000000000000000000000000000000000005f52600160045260245ffd5b610527816103a6565b82525050565b5f6020820190506105405f83018461051e565b92915050565b7f4174206c756e63682100000000000000000000000000000000000000000000005f82015250565b5f61057a60098361040e565b915061058582610546565b602082019050919050565b5f6020820190508181035f8301526105a78161056e565b905091905056fea264697066735822122008039d8ce4bb6a16e6f864d078b18521075a36bcd5773060946286f31c95086364736f6c634300081c0033","linkReferences":{}},"methodIdentifiers":{"doNotDisturb(uint256)":"e655b7bb","fizzBuzz(uint256)":"440c93e2"},"id":0}